:020000040000FA
:10000000006AD1EF00F0E950086E819481968196E4
:100010009394939693960F0E9316085000B220D0A7
:100020003A0E026EFC0E91EC00F0330E076E2DD8E6
:10003000100E026E680E91EC00F027D8640E90EC62
:1000400000F0220E076E21D8280E09D80C0E07D812
:10005000010E05D8060E03D80082085001D000809A
:10006000076E00A00BD0819603080EE30DD8050E95
:10007000026EDC0E91EC00F0D88012000080FE08C9
:10008000D8B4CEEF00F0818600A0009081840F0EDE
:1000900081160750F00B81128194073A00B0F5D712
:1000A0002C0E90EC00F0D88012001F9E0A50D8B49D
:1000B0001F8E050E096E270E046E100E0CD8030E4F
:1000C000046EE80E08D8046A640E05D8046A0A0EA5
:1000D00002D8055008D0036E0650026E0550016E1E
:1000E000B0EC00F00150016E094E1F9E0A5003E073
:1000F000095CD8B012000150D8A41F9E1FBE120088
:10010000300FC8EF00F0046A036EE86A0306045A71
:10011000D8A0CEEF00F0030E026EE00E02D8F5D7A5
:10012000026AE90F016EFC0E05E3000004000126DF
:10013000FDE2000001260206F9E201B000D001A2B2
:1001400002D000D000001200E866FF0E0114D8A40F
:10015000FF0ECEEF00F00110D8A4FF0ECEEF00F09E
:10016000066A056A100E076E02340536063603501D
:10017000055E0450065A05E2035005260450062287
:10018000D89001360236072EEFD70150CEEF00F09F
:10019000E96EFB6A1250FA6E1150F96E000104000C
:1001A0001200070EC16E806A3F0E926E936A070EB0
:1001B000946E956A5B6A616A676A5C6A626A686A79
:1001C0005D6A636A696A5E6A646A6A6A5F6A656AC6
:1001D0006B6A606A666A6C6A836A839095908392A0
:1001E0009592839495948396959683989598839AFF
:1001F000959A586A596A5A6AFE0E06DF010E04DFA4
:10020000828A949A030E046EE80E7EDF829A949A94
:10021000320E79DFFE0EF8DE010EF6DEFE0EF4DEA3
:10022000800EF2DE730EF0DE6F0EEEDE660EECDE9A
:10023000740EEADE770EE8DE610EE6DE720EE4DEB4
:10024000650EE2DE440EE0DE450EDEDE530EDCDE41
:10025000490EDADE4E0ED8DE470ED6DE620ED4DE52
:10026000790ED2DEFE0ED0DEC00ECEDE200ECCDE4B
:10027000200ECADE540EC8DE4F0EC6DE520EC4DE9D
:10028000520EC2DE450EC0DE530EBEDE200EBCDEB8
:10029000490EBADE4F0EB8DE260EB6DE530EB4DEC1
:1002A000650EB2DE200EB0DE200EAEDEFE0EACDE3F
:1002B000900EAADE680EA8DE610EA6DE720EA4DE27
:1002C000640EA2DE770EA0DE610E9EDE720E9CDE54
:1002D000650E9ADE200E98DE500E96DE4F0E94DEEE
:1002E000570E92DE450E90DE520E8EDE620E8CDED2
:1002F000790E8ADEFE0E88DED00E86DE200E84DECB
:10030000200E82DE490E80DE560E7EDE410E7CDE41
:100310004E0E7ADE200E78DE450E76DE6C0E74DE32
:10032000650E72DE630E70DE740E6EDE720E6CDEB3
:10033000690E6ADE630E68DE200E66DE050E046E50
:10034000DC0EE2DEFE0E60DE010E5EDEFE0E5CDE28
:10035000800E5ADE200E58DE200E56DE200E54DEB1
:10036000200E52DE200E50DE200E4EDE200E4CDE21
:10037000200E4ADE200E48DE200E46DE200E44DE31
:10038000200E42DE200E40DE200E3EDE200E3CDE41
:10039000200E3ADEFE0E38DEC00E36DE200E34DED3
:1003A000200E32DE200E30DE200E2EDE200E2CDE61
:1003B000200E2ADE200E28DE200E26DE200E24DE71
:1003C000200E22DE200E20DE200E1EDE200E1CDE81
:1003D000200E1ADE200E18DE200E16DEFE0E14DEB3
:1003E000900E12DE200E10DE200E0EDE200E0CDE31
:1003F000200E0ADE200E08DE200E06DE200E04DEB1
:10040000200E02DE200E00DE200E04EC00F0200E96
:1004100004EC00F0200E04EC00F0200E04EC00F0E0
:10042000200E04EC00F0200E04EC00F0200E04EC92
:1004300000F0FE0E04EC00F0D00E04EC00F02D0EE7
:1004400004EC00F02D0E04EC00F02D0E04EC00F096
:100450002D0E04EC00F02D0E04EC00F02D0E04EC3B
:1004600000F02D0E04EC00F02D0E04EC00F02D0E2B
:1004700004EC00F02D0E04EC00F02D0E04EC00F066
:100480002D0E04EC00F02D0E04EC00F02D0E04EC0B
:1004900000F02D0E04EC00F02D0E04EC00F0030E25
:1004A000046E840E31DEFE0E04EC00F0800E04ECCF
:1004B00000F0200E04EC00F0200E04EC00F0200E02
:1004C00004EC00F0200E04EC00F0200E04EC00F030
:1004D000200E04EC00F0200E04EC00F0200E04ECE2
:1004E00000F0200E04EC00F0200E04EC00F0200ED2
:1004F00004EC00F0200E04EC00F0200E04EC00F000
:10050000200E04EC00F0200E04EC00F0200E04ECB1
:1005100000F0FE0E04EC00F0C00E04EC00F0200E23
:1005200004EC00F0200E04EC00F0200E04EC00F0CF
:10053000200E04EC00F0200E04EC00F0200E04EC81
:1005400000F0200E04EC00F0200E04EC00F0200E71
:1005500004EC00F0200E04EC00F0200E04EC00F09F
:10056000200E04EC00F0200E04EC00F0200E04EC51
:1005700000F0200E04EC00F0200E04EC00F0FE0E63
:1005800004EC00F0900E04EC00F02D0E04EC00F0F2
:100590002D0E04EC00F02D0E04EC00F02D0E04ECFA
:1005A00000F02D0E04EC00F02D0E04EC00F02D0EEA
:1005B00004EC00F02D0E04EC00F02D0E04EC00F025
:1005C0002D0E04EC00F02D0E04EC00F02D0E04ECCA
:1005D00000F02D0E04EC00F02D0E04EC00F02D0EBA
:1005E00004EC00F02D0E04EC00F0FE0E04EC00F024
:1005F000D00E04EC00F0540E04EC00F0650E04EC98
:1006000000F06D0E04EC00F0700E04EC00F06F0EC4
:1006100004EC00F0720E04EC00F0690E04EC00F043
:100620007A0E04EC00F0610E04EC00F0640E04ECB1
:1006300000F06F0E04EC00F0720E04EC00F0200EDF
:1006400004EC00F0200E04EC00F0200E04EC00F0AE
:10065000200E04EC00F0030E046E840E84EC00F017
:10066000FE0E04EC00F0800E04EC00F0200E04EC12
:1006700000F0200E04EC00F0200E04EC00F0200E40
:1006800004EC00F0200E04EC00F0200E04EC00F06E
:10069000200E04EC00F0200E04EC00F0200E04EC20
:1006A00000F0200E04EC00F0200E04EC00F0200E10
:1006B00004EC00F0200E04EC00F0200E04EC00F03E
:1006C000200E04EC00F0200E04EC00F0FE0E04EC12
:1006D00000F0C00E04EC00F02D0E04EC00F02D0E26
:1006E00004EC00F02D0E04EC00F02D0E04EC00F0F4
:1006F0002D0E04EC00F02D0E04EC00F02D0E04EC99
:1007000000F02D0E04EC00F02D0E04EC00F02D0E88
:1007100004EC00F02D0E04EC00F02D0E04EC00F0C3
:100720002D0E04EC00F02D0E04EC00F02D0E04EC68
:1007300000F02D0E04EC00F0FE0E04EC00F0900E24
:1007400004EC00F0540E04EC00F0650E04EC00F034
:100750006D0E04EC00F0700E04EC00F06F0E04EC73
:1007600000F0720E04EC00F0690E04EC00F07A0E5A
:1007700004EC00F0610E04EC00F0640E04EC00F0F8
:100780006F0E04EC00F0720E04EC00F0200E04EC8E
:1007900000F0200E04EC00F0200E04EC00F0200E1F
:1007A00004EC00F0FE0E04EC00F0D00E04EC00F0BF
:1007B000200E04EC00F0500E04EC00F0520E04EC9D
:1007C00000F04F0E04EC00F0470E04EC00F0520E67
:1007D00004EC00F0410E04EC00F04D0E04EC00F0CF
:1007E000410E04EC00F0420E04EC00F04C0E04EC60
:1007F00000F0450E04EC00F0200E04EC00F0560E64
:1008000004EC00F0380E04EC00F0730E04EC00F081
:10081000030E046E840E84EC00F0FE0E04EC00F077
:10082000800E04EC00F02D0E04EC00F02D0E04EC14
:1008300000F02D0E04EC00F02D0E04EC00F02D0E57
:1008400004EC00F02D0E04EC00F02D0E04EC00F092
:100850002D0E04EC00F02D0E04EC00F02D0E04EC37
:1008600000F02D0E04EC00F02D0E04EC00F02D0E27
:1008700004EC00F02D0E04EC00F02D0E04EC00F062
:100880002D0E04EC00F0FE0E04EC00F0C00E04ECA3
:1008900000F0540E04EC00F0650E04EC00F06D0E58
:1008A00004EC00F0700E04EC00F06F0E04EC00F0AD
:1008B000720E04EC00F0690E04EC00F07A0E04EC09
:1008C00000F0610E04EC00F0640E04EC00F06F0E1A
:1008D00004EC00F0720E04EC00F0200E04EC00F0CA
:1008E000200E04EC00F0200E04EC00F0200E04ECCE
:1008F00000F0FE0E04EC00F0900E04EC00F0200E70
:1009000004EC00F0500E04EC00F0520E04EC00F089
:100910004F0E04EC00F0470E04EC00F0520E04EC15
:1009200000F0410E04EC00F04D0E04EC00F0410E1E
:1009300004EC00F0420E04EC00F04C0E04EC00F06D
:10094000450E04EC00F0200E04EC00F0560E04EC12
:1009500000F0380E04EC00F0730E04EC00F0FE0E14
:1009600004EC00F0D00E04EC00F02D0E04EC00F0CE
:100970002D0E04EC00F02D0E04EC00F02D0E04EC16
:1009800000F02D0E04EC00F02D0E04EC00F02D0E06
:1009900004EC00F02D0E04EC00F02D0E04EC00F041
:1009A0002D0E04EC00F02D0E04EC00F02D0E04ECE6
:1009B00000F02D0E04EC00F02D0E04EC00F02D0ED6
:1009C00004EC00F02D0E04EC00F0030E046E840E17
:1009D00084EC00F0FE0E04EC00F0800E04EC00F05D
:1009E000540E04EC00F0650E04EC00F06D0E04EC07
:1009F00000F0700E04EC00F06F0E04EC00F0720ECC
:100A000004EC00F0690E04EC00F07A0E04EC00F047
:100A1000610E04EC00F0640E04EC00F06F0E04ECC8
:100A200000F0720E04EC00F0200E04EC00F0200E3A
:100A300004EC00F0200E04EC00F0200E04EC00F0BA
:100A4000FE0E04EC00F0C00E04EC00F0200E04ECEE
:100A500000F0500E04EC00F0520E04EC00F04F0ECB
:100A600004EC00F0470E04EC00F0520E04EC00F031
:100A7000410E04EC00F04D0E04EC00F0410E04ECCD
:100A800000F0420E04EC00F04C0E04EC00F0450EB9
:100A900004EC00F0200E04EC00F0560E04EC00F024
:100AA000380E04EC00F0730E04EC00F0FE0E04ECC3
:100AB00000F0900E04EC00F02D0E04EC00F02D0E72
:100AC00004EC00F02D0E04EC00F02D0E04EC00F010
:100AD0002D0E04EC00F02D0E04EC00F02D0E04ECB5
:100AE00000F02D0E04EC00F02D0E04EC00F02D0EA5
:100AF00004EC00F02D0E04EC00F02D0E04EC00F0E0
:100B00002D0E04EC00F02D0E04EC00F02D0E04EC84
:100B100000F02D0E04EC00F0FE0E04EC00F0D00E00
:100B200004EC00F0200E04EC00F0200E04EC00F0C9
:100B3000200E04EC00F0200E04EC00F0200E04EC7B
:100B400000F0200E04EC00F0200E04EC00F0200E6B
:100B500004EC00F0200E04EC00F0200E04EC00F099
:100B6000200E04EC00F0200E04EC00F0200E04EC4B
:100B700000F0200E04EC00F0200E04EC00F0200E3B
:100B800004EC00F0030E046E840E84EC00F0FE0E04
:100B900004EC00F0800E04EC00F0200E04EC00F0F9
:100BA000500E04EC00F0520E04EC00F04F0E04EC7A
:100BB00000F0470E04EC00F0520E04EC00F0410E81
:100BC00004EC00F04D0E04EC00F0410E04EC00F0DB
:100BD000420E04EC00F04C0E04EC00F0450E04EC68
:100BE00000F0200E04EC00F0560E04EC00F0380E7D
:100BF00004EC00F0730E04EC00F0FE0E04EC00F0C8
:100C0000C00E04EC00F02D0E04EC00F02D0E04ECF0
:100C100000F02D0E04EC00F02D0E04EC00F02D0E73
:100C200004EC00F02D0E04EC00F02D0E04EC00F0AE
:100C30002D0E04EC00F02D0E04EC00F02D0E04EC53
:100C400000F02D0E04EC00F02D0E04EC00F02D0E43
:100C500004EC00F02D0E04EC00F02D0E04EC00F07E
:100C60002D0E04EC00F0FE0E04EC00F0900E04ECEF
:100C700000F0200E04EC00F0200E04EC00F0200E3A
:100C800004EC00F0200E04EC00F0200E04EC00F068
:100C9000200E04EC00F0200E04EC00F0200E04EC1A
:100CA00000F0200E04EC00F0200E04EC00F0200E0A
:100CB00004EC00F0200E04EC00F0200E04EC00F038
:100CC000200E04EC00F0200E04EC00F0200E04ECEA
:100CD00000F0FE0E04EC00F0D00E04EC00F0200E4C
:100CE00004EC00F0200E04EC00F0200E04EC00F008
:100CF000200E04EC00F0200E04EC00F0200E04ECBA
:100D000000F0200E04EC00F0200E04EC00F0200EA9
:100D100004EC00F0200E04EC00F0200E04EC00F0D7
:100D2000200E04EC00F0200E04EC00F0200E04EC89
:100D300000F0200E04EC00F0200E04EC00F0030E96
:100D4000046E840E84EC00F0FE0E04EC00F0800EC5
:100D500004EC00F02D0E04EC00F02D0E04EC00F07D
:100D60002D0E04EC00F02D0E04EC00F02D0E04EC22
:100D700000F02D0E04EC00F02D0E04EC00F02D0E12
:100D800004EC00F02D0E04EC00F02D0E04EC00F04D
:100D90002D0E04EC00F02D0E04EC00F02D0E04ECF2
:100DA00000F02D0E04EC00F02D0E04EC00F02D0EE2
:100DB00004EC00F0FE0E04EC00F0C00E04EC00F0B9
:100DC000200E04EC00F0200E04EC00F0200E04ECE9
:100DD00000F0200E04EC00F0200E04EC00F0200ED9
:100DE00004EC00F0200E04EC00F0200E04EC00F007
:100DF000200E04EC00F0200E04EC00F0200E04ECB9
:100E000000F0200E04EC00F0200E04EC00F0200EA8
:100E100004EC00F0200E04EC00F0200E04EC00F0D6
:100E2000FE0E04EC00F0900E04EC00F0200E04EC3A
:100E300000F0200E04EC00F0200E04EC00F0200E78
:100E400004EC00F0200E04EC00F0200E04EC00F0A6
:100E5000200E04EC00F0200E04EC00F0200E04EC58
:100E600000F0200E04EC00F0200E04EC00F0200E48
:100E700004EC00F0200E04EC00F0200E04EC00F076
:100E8000200E04EC00F0200E04EC00F0FE0E04EC4A
:100E900000F0D00E04EC00F0200E04EC00F0200E68
:100EA00004EC00F0200E04EC00F0200E04EC00F046
:100EB000200E04EC00F0200E04EC00F0200E04ECF8
:100EC00000F0200E04EC00F0200E04EC00F0200EE8
:100ED00004EC00F0200E04EC00F0200E04EC00F016
:100EE000200E04EC00F0200E04EC00F0200E04ECC8
:100EF00000F0200E04EC00F0030E046E840E84EC6F
:100F000000F0FE0E04EC00F0010E04EC00F0FE0E0A
:100F100004EC00F0800E04EC00F04D0E04EC00F048
:100F2000450E04EC00F04E0E04EC00F0550E04ECFF
:100F300000F03A0E04EC00F0200E04EC00F0200E5D
:100F400004EC00F0200E04EC00F0200E04EC00F0A5
:100F5000200E04EC00F0200E04EC00F0200E04EC57
:100F600000F0200E04EC00F0200E04EC00F0200E47
:100F700004EC00F0200E04EC00F0FE0E04EC00F097
:100F8000C00E04EC00F0490E04EC00F04E0E04EC30
:100F900000F0490E04EC00F0430E04EC00F0490EA2
:100FA00004EC00F04F0E04EC00F0200E04EC00F016
:100FB0002D0E04EC00F0280E04EC00F0530E04ECAF
:100FC00000F0540E04EC00F0410E04EC00F0520E60
:100FD00004EC00F0540E04EC00F0290E04EC00F0D8
:100FE0002D0E04EC00F0FE0E04EC00F0900E04EC6C
:100FF00000F0430E04EC00F04F0E04EC00F04E0E37
:1010000004EC00F0460E04EC00F0490E04EC00F095
:10101000470E04EC00F0200E04EC00F02D0E04EC62
:1010200000F0280E04EC00F0430E04EC00F04C0E2F
:1010300004EC00F0450E04EC00F0410E04EC00F06E
:10104000520E04EC00F0290E04EC00F02D0E04EC1E
:1010500000F0FE0E04EC00F0D00E04EC00F0500E98
:1010600004EC00F0520E04EC00F0550E04EC00F01D
:10107000450E04EC00F0420E04EC00F0410E04ECCE
:1010800000F0200E04EC00F02D0E04EC00F0280E11
:1010900004EC00F0450E04EC00F04E0E04EC00F001
:1010A000540E04EC00F0450E04EC00F0520E04EC7B
:1010B00000F0290E04EC00F02D0E04EC00F004000A
:1010C00080AA56EF0BF0040080B059EF09F004003D
:1010D0004E500008D8A457EF09F0FE0E04EC00F0C3
:1010E000010E04EC00F0FE0E04EC00F0800E04ECA7
:1010F00000F0200E04EC00F0200E04EC00F0200EB6
:1011000004EC00F0200E04EC00F0200E04EC00F0E3
:10111000200E04EC00F0200E04EC00F0200E04EC95
:1011200000F0200E04EC00F0200E04EC00F0200E85
:1011300004EC00F0200E04EC00F0200E04EC00F0B3
:10114000200E04EC00F0200E04EC00F0200E04EC65
:1011500000F0FE0E04EC00F0C00E04EC00F0430EB4
:1011600004EC00F0740E04EC00F0720E04EC00F0DD
:101170006C0E04EC00F0200E04EC00F0500E04ECB9
:1011800000F0520E04EC00F04F0E04EC00F0470E9D
:1011900004EC00F0520E04EC00F0410E04EC00F000
:1011A0004D0E04EC00F0410E04EC00F0420E04EC95
:1011B00000F04C0E04EC00F0450E04EC00F0FE0EC6
:1011C00004EC00F0900E04EC00F0730E04EC00F060
:1011D000690E04EC00F06E0E04EC00F0430E04EC1B
:1011E00000F04F0E04EC00F04E0E04EC00F0460E42
:1011F00004EC00F0490E04EC00F0470E04EC00F0A3
:10120000550E04EC00F0520E04EC00F0410E04EC1C
:1012100000F0430E04EC00F0490E04EC00F04F0E19
:1012200004EC00F04E0E04EC00F0FE0E04EC00F0B6
:10123000D00E04EC00F0200E04EC00F0200E04ECC4
:1012400000F0200E04EC00F0200E04EC00F0200E64
:1012500004EC00F0200E04EC00F0200E04EC00F092
:10126000200E04EC00F0200E04EC00F0200E04EC44
:1012700000F0200E04EC00F0200E04EC00F0200E34
:1012800004EC00F0200E04EC00F0200E04EC00F062
:10129000200E04EC00F0050E046EDC0E84EC00F071
:1012A000FE0E04EC00F0010E04EC00F030D636EF38
:1012B00020F0040082B050EF0AF004004E50000805
:1012C000D8A44EEF0AF0FE0E04EC00F0010E04EC80
:1012D00000F0FE0E04EC00F0800E04EC00F0200E96
:1012E00004EC00F0200E04EC00F0200E04EC00F002
:1012F000200E04EC00F0200E04EC00F0200E04ECB4
:1013000000F0200E04EC00F0200E04EC00F0200EA3
:1013100004EC00F0200E04EC00F0200E04EC00F0D1
:10132000200E04EC00F0200E04EC00F0200E04EC83
:1013300000F0200E04EC00F0200E04EC00F0FE0E95
:1013400004EC00F0C00E04EC00F0430E04EC00F0DE
:10135000740E04EC00F0720E04EC00F06C0E04EC61
:1013600000F0200E04EC00F0500E04EC00F0520EE1
:1013700004EC00F04F0E04EC00F0470E04EC00F01B
:10138000520E04EC00F0410E04EC00F04D0E04ECA3
:1013900000F0410E04EC00F0420E04EC00F04C0EA4
:1013A00004EC00F0450E04EC00F0FE0E04EC00F03E
:1013B000900E04EC00F0730E04EC00F0690E04ECE7
:1013C00000F06E0E04EC00F0430E04EC00F04F0E43
:1013D00004EC00F04E0E04EC00F0460E04EC00F0BD
:1013E000490E04EC00F0470E04EC00F0550E04EC3E
:1013F00000F0520E04EC00F0410E04EC00F0430E3D
:1014000004EC00F0490E04EC00F04F0E04EC00F088
:101410004E0E04EC00F0FE0E04EC00F0D00E04ECD6
:1014200000F0200E04EC00F0200E04EC00F0200E82
:1014300004EC00F0200E04EC00F0200E04EC00F0B0
:10144000200E04EC00F0200E04EC00F0200E04EC62
:1014500000F0200E04EC00F0200E04EC00F0200E52
:1014600004EC00F0200E04EC00F0200E04EC00F080
:10147000200E04EC00F0200E04EC00F0200E04EC32
:1014800000F0050E046EDC0E84EC00F0FE0E04ECA1
:1014900000F0010E04EC00F087EF07F04FEF21F0B1
:1014A000040080A454EF18F0640E83EC00F087EF82
:1014B00007F0FE0E04EC00F0010E04EC00F0FE0E4E
:1014C00004EC00F0800E04EC00F0200E04EC00F0C0
:1014D000440E04EC00F0490E04EC00F0410E04EC64
:1014E00000F0470E04EC00F04E0E04EC00F04F0E3E
:1014F00004EC00F0530E04EC00F0540E04EC00F089
:10150000490E04EC00F0430E04EC00F04F0E04EC26
:1015100000F0200E04EC00F0440E04EC00F0450E48
:1015200004EC00F0200E04EC00F0FE0E04EC00F0E1
:10153000C00E04EC00F0480E04EC00F0410E04EC88
:1015400000F0520E04EC00F0440E04EC00F0570ED4
:1015500004EC00F0410E04EC00F0520E04EC00F03C
:10156000450E04EC00F03A0E04EC00F0200E04EC02
:1015700000F0200E04EC00F0200E04EC00F0200E31
:1015800004EC00F0200E04EC00F0200E04EC00F05F
:10159000200E04EC00F0FE0E04EC00F0900E04ECC3
:1015A00000F02D0E04EC00F0500E04EC00F0520E92
:1015B00004EC00F0550E04EC00F0450E04EC00F0D5
:1015C000420E04EC00F0410E04EC00F0200E04EC9E
:1015D00000F0410E04EC00F0420E04EC00F04F0E5F
:1015E00004EC00F0520E04EC00F0540E04EC00F099
:1015F000410E04EC00F0440E04EC00F0410E04EC4B
:1016000000F0FE0E04EC00F0D00E04EC00F0200E12
:1016100004EC00F0200E04EC00F0200E04EC00F0CE
:10162000200E04EC00F0200E04EC00F0200E04EC80
:1016300000F0200E04EC00F0200E04EC00F0200E70
:1016400004EC00F0200E04EC00F0200E04EC00F09E
:10165000200E04EC00F0200E04EC00F0200E04EC50
:1016600000F0200E04EC00F0200E04EC00F083905B
:10167000959083929592839495948396959683986A
:101680009598839A959A839C959C839E959E3B6A98
:101690003E6A416A446A476A4A6A4C6A4D6A090E60
:1016A000046EC40E84EC00F087EF07F0FE0E04EC2D
:1016B00000F0010E04EC00F0FE0E04EC00F0800ED1
:1016C00004EC00F0200E04EC00F0440E04EC00F0FA
:1016D000490E04EC00F0410E04EC00F0470E04EC5F
:1016E00000F04E0E04EC00F04F0E04EC00F0530E30
:1016F00004EC00F0540E04EC00F0490E04EC00F091
:10170000430E04EC00F04F0E04EC00F0200E04EC4D
:1017100000F0440E04EC00F0450E04EC00F0200E46
:1017200004EC00F0FE0E04EC00F0C00E04EC00F03F
:10173000480E04EC00F0410E04EC00F0520E04ECF4
:1017400000F0440E04EC00F0570E04EC00F0410EE3
:1017500004EC00F0520E04EC00F0450E04EC00F036
:101760003A0E04EC00F0200E04EC00F0200E04EC25
:1017700000F0200E04EC00F0200E04EC00F0200E2F
:1017800004EC00F0200E04EC00F0200E04EC00F05D
:10179000FE0E04EC00F0900E04EC00F02D0E04ECB4
:1017A00000F0500E04EC00F0520E04EC00F0550E68
:1017B00004EC00F0450E04EC00F0420E04EC00F0E6
:1017C000410E04EC00F0200E04EC00F0520E04EC8C
:1017D00000F0450E04EC00F04C0E04EC00F0410E5D
:1017E00004EC00F0590E04EC00F0200E04EC00F0C4
:1017F000200E04EC00F0FE0E04EC00F0D00E04EC21
:1018000000F0200E04EC00F0200E04EC00F0200E9E
:1018100004EC00F0200E04EC00F0200E04EC00F0CC
:10182000200E04EC00F0200E04EC00F0200E04EC7E
:1018300000F0200E04EC00F0200E04EC00F0200E6E
:1018400004EC00F0200E04EC00F0200E04EC00F09C
:10185000200E04EC00F0200E04EC00F0200E04EC4E
:1018600000F0090E046EC40E84EC00F0FE0E04ECD1
:1018700000F0010E04EC00F0FE0E04EC00F0800E0F
:1018800004EC00F0520E04EC00F0450E04EC00F005
:101890004C0E04EC00F0410E04EC00F0590E04EC88
:1018A00000F0310E04EC00F0650E04EC00F06E0E5A
:1018B00004EC00F0630E04EC00F0650E04EC00F0A4
:1018C0006E0E04EC00F0640E04EC00F0690E04EC03
:1018D00000F0640E04EC00F06F0E04EC00F03F0E1C
:1018E00004EC00F0FE0E04EC00F0C00E04EC00F07E
:1018F0002D0E04EC00F03E0E04EC00F0530E04EC50
:1019000000F0410E04EC00F04C0E04EC00F0490E27
:1019100004EC00F0520E04EC00F0200E04EC00F099
:10192000200E04EC00F0280E04EC00F0430E04EC52
:1019300000F04C0E04EC00F0450E04EC00F0410EFB
:1019400004EC00F0520E04EC00F0290E04EC00F060
:10195000FE0E04EC00F0900E04EC00F02D0E04ECF2
:1019600000F03E0E04EC00F0530E04EC00F0490EC3
:1019700004EC00F0200E04EC00F0700E04EC00F01B
:10198000720E04EC00F0650E04EC00F0730E04EC33
:1019900000F0280E04EC00F0530E04EC00F0540E9E
:1019A00004EC00F0410E04EC00F0520E04EC00F0E8
:1019B000540E04EC00F0290E04EC00F0FE0E04ECD2
:1019C00000F0D00E04EC00F02D0E04EC00F03E0E02
:1019D00004EC00F04E0E04EC00F04F0E04EC00F0AE
:1019E000200E04EC00F0700E04EC00F0720E04EC1B
:1019F00000F0650E04EC00F0730E04EC00F0280E0D
:101A000004EC00F0530E04EC00F0540E04EC00F073
:101A10004F0E04EC00F0500E04EC00F0210E04EC2C
:101A200000F0290E04EC00F0040080A459EF0AF045
:101A300083809590040080B029EF0DF0040080B001
:101A400023EF0DF0FBD7010E3B6E8390959038EF9E
:101A50000DF0040080B237EF0DF0040080B232EFD9
:101A60000DF0FBD73B6A8390959038EF0DF004D7CB
:101A7000FE0E04EC00F0800E04EC00F0520E04ECBC
:101A800000F0450E04EC00F04C0E04EC00F0410EAA
:101A900004EC00F0590E04EC00F0320E04EC00F0FF
:101AA000650E04EC00F06E0E04EC00F0630E04EC26
:101AB00000F0650E04EC00F06E0E04EC00F0640E15
:101AC00004EC00F0690E04EC00F0640E04EC00F08D
:101AD0006F0E04EC00F03F0E04EC00F0FE0E04EC80
:101AE00000F0C00E04EC00F02D0E04EC00F03E0EF1
:101AF00004EC00F0530E04EC00F0410E04EC00F096
:101B00004C0E04EC00F0490E04EC00F0520E04EC14
:101B100000F0200E04EC00F0200E04EC00F0280E83
:101B200004EC00F0430E04EC00F04C0E04EC00F06A
:101B3000450E04EC00F0410E04EC00F0520E04ECF3
:101B400000F0290E04EC00F0FE0E04EC00F0900E04
:101B500004EC00F02D0E04EC00F03E0E04EC00F05E
:101B6000530E04EC00F0490E04EC00F0200E04ECDF
:101B700000F0200E04EC00F0200E04EC00F0200E2B
:101B800004EC00F0200E04EC00F0280E04EC00F051
:101B9000530E04EC00F0540E04EC00F0410E04EC83
:101BA00000F0520E04EC00F0540E04EC00F0290E8C
:101BB00004EC00F0FE0E04EC00F0D00E04EC00F09B
:101BC0002D0E04EC00F03E0E04EC00F04E0E04EC82
:101BD00000F04F0E04EC00F0200E04EC00F0200E9C
:101BE00004EC00F0200E04EC00F0200E04EC00F0F9
:101BF000200E04EC00F0280E04EC00F0530E04EC70
:101C000000F0540E04EC00F04F0E04EC00F0500E07
:101C100004EC00F0210E04EC00F0290E04EC00F0BE
:101C2000040080A459EF0AF083829592040080B0EA
:101C300025EF0EF0040080B01FEF0EF0FBD7010E71
:101C40003E6E8392959234EF0EF0040080B233EF33
:101C50000EF0040080B22EEF0EF0FBD73E6A8392A6
:101C6000959234EF0EF004D7FE0E04EC00F0800ED7
:101C700004EC00F0520E04EC00F0450E04EC00F011
:101C80004C0E04EC00F0410E04EC00F0590E04EC94
:101C900000F0330E04EC00F0650E04EC00F06E0E64
:101CA00004EC00F0630E04EC00F0650E04EC00F0B0
:101CB0006E0E04EC00F0640E04EC00F0690E04EC0F
:101CC00000F0640E04EC00F06F0E04EC00F03F0E28
:101CD00004EC00F0FE0E04EC00F0C00E04EC00F08A
:101CE0002D0E04EC00F03E0E04EC00F0530E04EC5C
:101CF00000F0410E04EC00F04C0E04EC00F0490E34
:101D000004EC00F0520E04EC00F0200E04EC00F0A5
:101D1000200E04EC00F0280E04EC00F0430E04EC5E
:101D200000F04C0E04EC00F0450E04EC00F0410E07
:101D300004EC00F0520E04EC00F0290E04EC00F06C
:101D4000FE0E04EC00F0900E04EC00F02D0E04ECFE
:101D500000F03E0E04EC00F0530E04EC00F0490ECF
:101D600004EC00F0200E04EC00F0200E04EC00F077
:101D7000200E04EC00F0200E04EC00F0200E04EC29
:101D800000F0280E04EC00F0530E04EC00F0540EAA
:101D900004EC00F0410E04EC00F0520E04EC00F0F4
:101DA000540E04EC00F0290E04EC00F0FE0E04ECDE
:101DB00000F0D00E04EC00F02D0E04EC00F03E0E0E
:101DC00004EC00F04E0E04EC00F04F0E04EC00F0BA
:101DD000200E04EC00F0200E04EC00F0200E04ECC9
:101DE00000F0200E04EC00F0200E04EC00F0280EB1
:101DF00004EC00F0530E04EC00F0540E04EC00F080
:101E00004F0E04EC00F0500E04EC00F0210E04EC38
:101E100000F0290E04EC00F0040080A459EF0AF051
:101E200083849594040080B021EF0FF0040080B00B
:101E30001BEF0FF0FBD7010E416E8394959430EFAA
:101E40000FF0040080B22FEF0FF0040080B22AEFF1
:101E50000FF0FBD7416A8394959430EF0FF004D7CD
:101E6000FE0E04EC00F0800E04EC00F0520E04ECC8
:101E700000F0450E04EC00F04C0E04EC00F0410EB6
:101E800004EC00F0590E04EC00F0340E04EC00F009
:101E9000650E04EC00F06E0E04EC00F0630E04EC32
:101EA00000F0650E04EC00F06E0E04EC00F0640E21
:101EB00004EC00F0690E04EC00F0640E04EC00F099
:101EC0006F0E04EC00F03F0E04EC00F0FE0E04EC8C
:101ED00000F0C00E04EC00F02D0E04EC00F03E0EFD
:101EE00004EC00F0530E04EC00F0410E04EC00F0A2
:101EF0004C0E04EC00F0490E04EC00F0520E04EC21
:101F000000F0200E04EC00F0200E04EC00F0280E8F
:101F100004EC00F0430E04EC00F04C0E04EC00F076
:101F2000450E04EC00F0410E04EC00F0520E04ECFF
:101F300000F0290E04EC00F0FE0E04EC00F0900E10
:101F400004EC00F02D0E04EC00F03E0E04EC00F06A
:101F5000530E04EC00F0490E04EC00F0200E04ECEB
:101F600000F0200E04EC00F0200E04EC00F0200E37
:101F700004EC00F0200E04EC00F0280E04EC00F05D
:101F8000530E04EC00F0540E04EC00F0410E04EC8F
:101F900000F0520E04EC00F0540E04EC00F0290E98
:101FA00004EC00F0FE0E04EC00F0D00E04EC00F0A7
:101FB0002D0E04EC00F03E0E04EC00F04E0E04EC8E
:101FC00000F04F0E04EC00F0200E04EC00F0200EA8
:101FD00004EC00F0200E04EC00F0200E04EC00F005
:101FE000200E04EC00F0280E04EC00F0530E04EC7C
:101FF00000F0540E04EC00F04F0E04EC00F0500E14
:1020000004EC00F0210E04EC00F0290E04EC00F0CA
:10201000040080A459EF0AF083869596040080B0EE
:102020001DEF10F0040080B017EF10F0FBD7010E89
:10203000446E839695962CEF10F0040080B22BEF3F
:1020400010F0040080B226EF10F0FBD7446A8396AC
:1020500095962CEF10F004D7FE0E04EC00F0800EE5
:1020600004EC00F0520E04EC00F0450E04EC00F01D
:102070004C0E04EC00F0410E04EC00F0590E04ECA0
:1020800000F0350E04EC00F0650E04EC00F06E0E6E
:1020900004EC00F0630E04EC00F0650E04EC00F0BC
:1020A0006E0E04EC00F0640E04EC00F0690E04EC1B
:1020B00000F0640E04EC00F06F0E04EC00F03F0E34
:1020C00004EC00F0FE0E04EC00F0C00E04EC00F096
:1020D0002D0E04EC00F03E0E04EC00F0530E04EC68
:1020E00000F0410E04EC00F04C0E04EC00F0490E40
:1020F00004EC00F0520E04EC00F0200E04EC00F0B2
:10210000200E04EC00F0280E04EC00F0430E04EC6A
:1021100000F04C0E04EC00F0450E04EC00F0410E13
:1021200004EC00F0520E04EC00F0290E04EC00F078
:10213000FE0E04EC00F0900E04EC00F02D0E04EC0A
:1021400000F03E0E04EC00F0530E04EC00F0490EDB
:1021500004EC00F0200E04EC00F0200E04EC00F083
:10216000200E04EC00F0200E04EC00F0200E04EC35
:1021700000F0280E04EC00F0530E04EC00F0540EB6
:1021800004EC00F0410E04EC00F0520E04EC00F000
:10219000540E04EC00F0290E04EC00F0FE0E04ECEA
:1021A00000F0D00E04EC00F02D0E04EC00F03E0E1A
:1021B00004EC00F04E0E04EC00F04F0E04EC00F0C6
:1021C000200E04EC00F0200E04EC00F0200E04ECD5
:1021D00000F0200E04EC00F0200E04EC00F0280EBD
:1021E00004EC00F0530E04EC00F0540E04EC00F08C
:1021F0004F0E04EC00F0500E04EC00F0210E04EC45
:1022000000F0290E04EC00F0040080A459EF0AF05D
:1022100083889598040080B019EF11F0040080B015
:1022200013EF11F0FBD7010E476E8398959828EFB6
:1022300011F0040080B227EF11F0040080B222EF09
:1022400011F0FBD7476A8398959828EF11F004D7CF
:10225000FE0E04EC00F0800E04EC00F0520E04ECD4
:1022600000F0450E04EC00F04C0E04EC00F0410EC2
:1022700004EC00F0590E04EC00F0360E04EC00F013
:10228000650E04EC00F06E0E04EC00F0630E04EC3E
:1022900000F0650E04EC00F06E0E04EC00F0640E2D
:1022A00004EC00F0690E04EC00F0640E04EC00F0A5
:1022B0006F0E04EC00F03F0E04EC00F0FE0E04EC98
:1022C00000F0C00E04EC00F02D0E04EC00F03E0E09
:1022D00004EC00F0530E04EC00F0410E04EC00F0AE
:1022E0004C0E04EC00F0490E04EC00F0520E04EC2D
:1022F00000F0200E04EC00F0200E04EC00F0280E9C
:1023000004EC00F0430E04EC00F04C0E04EC00F082
:10231000450E04EC00F0410E04EC00F0520E04EC0B
:1023200000F0290E04EC00F0FE0E04EC00F0900E1C
:1023300004EC00F02D0E04EC00F03E0E04EC00F076
:10234000530E04EC00F0490E04EC00F0200E04ECF7
:1023500000F0200E04EC00F0200E04EC00F0200E43
:1023600004EC00F0200E04EC00F0280E04EC00F069
:10237000530E04EC00F0540E04EC00F0410E04EC9B
:1023800000F0520E04EC00F0540E04EC00F0290EA4
:1023900004EC00F0FE0E04EC00F0D00E04EC00F0B3
:1023A0002D0E04EC00F03E0E04EC00F04E0E04EC9A
:1023B00000F04F0E04EC00F0200E04EC00F0200EB4
:1023C00004EC00F0200E04EC00F0200E04EC00F011
:1023D000200E04EC00F0280E04EC00F0530E04EC88
:1023E00000F0540E04EC00F04F0E04EC00F0500E20
:1023F00004EC00F0210E04EC00F0290E04EC00F0D7
:10240000040080A459EF0AF0838A959A040080B0F2
:1024100015EF12F0040080B00FEF12F0FBD7010EA1
:102420004A6E839A959A24EF12F0040080B223EF4B
:1024300012F0040080B21EEF12F0FBD74A6A839AB2
:10244000959A24EF12F004D7FE0E04EC00F0800EF3
:1024500004EC00F0520E04EC00F0450E04EC00F029
:102460004C0E04EC00F0410E04EC00F0590E04ECAC
:1024700000F0370E04EC00F0650E04EC00F06E0E78
:1024800004EC00F0630E04EC00F0650E04EC00F0C8
:102490006E0E04EC00F0640E04EC00F0690E04EC27
:1024A00000F0640E04EC00F06F0E04EC00F03F0E40
:1024B00004EC00F0FE0E04EC00F0C00E04EC00F0A2
:1024C0002D0E04EC00F03E0E04EC00F0530E04EC74
:1024D00000F0410E04EC00F04C0E04EC00F0490E4C
:1024E00004EC00F0520E04EC00F0200E04EC00F0BE
:1024F000200E04EC00F0280E04EC00F0430E04EC77
:1025000000F04C0E04EC00F0450E04EC00F0410E1F
:1025100004EC00F0520E04EC00F0290E04EC00F084
:10252000FE0E04EC00F0900E04EC00F02D0E04EC16
:1025300000F03E0E04EC00F0530E04EC00F0490EE7
:1025400004EC00F0200E04EC00F0200E04EC00F08F
:10255000200E04EC00F0200E04EC00F0200E04EC41
:1025600000F0280E04EC00F0530E04EC00F0540EC2
:1025700004EC00F0410E04EC00F0520E04EC00F00C
:10258000540E04EC00F0290E04EC00F0FE0E04ECF6
:1025900000F0D00E04EC00F02D0E04EC00F03E0E26
:1025A00004EC00F04E0E04EC00F04F0E04EC00F0D2
:1025B000200E04EC00F0200E04EC00F0200E04ECE1
:1025C00000F0200E04EC00F0200E04EC00F0280EC9
:1025D00004EC00F0530E04EC00F0540E04EC00F098
:1025E0004F0E04EC00F0500E04EC00F0210E04EC51
:1025F00000F0290E04EC00F0040080A459EF0AF06A
:10260000838C959C040080B011EF13F0040080B01F
:102610000BEF13F0FBD7010E4C6E839C959C20EFC3
:1026200013F0040080B21FEF13F0040080B21AEF21
:1026300013F0FBD74C6A839C959C20EF13F004D7D2
:10264000FE0E04EC00F0800E04EC00F0520E04ECE0
:1026500000F0450E04EC00F04C0E04EC00F0410ECE
:1026600004EC00F0590E04EC00F0380E04EC00F01D
:10267000650E04EC00F06E0E04EC00F0630E04EC4A
:1026800000F0650E04EC00F06E0E04EC00F0640E39
:1026900004EC00F0690E04EC00F0640E04EC00F0B1
:1026A0006F0E04EC00F03F0E04EC00F0FE0E04ECA4
:1026B00000F0C00E04EC00F02D0E04EC00F03E0E15
:1026C00004EC00F0530E04EC00F0410E04EC00F0BA
:1026D0004C0E04EC00F0490E04EC00F0520E04EC39
:1026E00000F0200E04EC00F0200E04EC00F0280EA8
:1026F00004EC00F0430E04EC00F04C0E04EC00F08F
:10270000450E04EC00F0410E04EC00F0520E04EC17
:1027100000F0290E04EC00F0FE0E04EC00F0900E28
:1027200004EC00F02D0E04EC00F03E0E04EC00F082
:10273000530E04EC00F0490E04EC00F0200E04EC03
:1027400000F0200E04EC00F0200E04EC00F0200E4F
:1027500004EC00F0200E04EC00F0280E04EC00F075
:10276000530E04EC00F0540E04EC00F0410E04ECA7
:1027700000F0520E04EC00F0540E04EC00F0290EB0
:1027800004EC00F0FE0E04EC00F0D00E04EC00F0BF
:102790002D0E04EC00F03E0E04EC00F04E0E04ECA6
:1027A00000F04F0E04EC00F0200E04EC00F0200EC0
:1027B00004EC00F0200E04EC00F0200E04EC00F01D
:1027C000200E04EC00F0280E04EC00F0530E04EC94
:1027D00000F0540E04EC00F04F0E04EC00F0500E2C
:1027E00004EC00F0210E04EC00F0290E04EC00F0E3
:1027F000040080A459EF0AF0838E959E040080B0F7
:102800000DEF14F0040080B007EF14F0FBD7010EB9
:102810004D6E839E959E1CEF14F0040080B21BEF5A
:1028200014F0040080B216EF14F0FBD74D6A839EBB
:10283000959E1CEF14F004D7FE0E04EC00F0010E80
:1028400004EC00F0FE0E04EC00F0800E04EC00F04E
:102850002D0E04EC00F0500E04EC00F0520E04ECCF
:1028600000F0550E04EC00F0450E04EC00F0420EB2
:1028700004EC00F0410E04EC00F0200E04EC00F03B
:10288000520E04EC00F0450E04EC00F04C0E04EC8B
:1028900000F0410E04EC00F0590E04EC00F03A0E8A
:1028A00004EC00F0200E04EC00F0200E04EC00F02C
:1028B000FE0E04EC00F0C00E04EC00F0520E04EC2E
:1028C00000F0310E04EC00F03A0E04EC00F00A6A5D
:1028D0003BC005F0066A060E116E126A55EC00F058
:1028E000200E04EC00F0200E04EC00F0520E04EC7C
:1028F00000F0320E04EC00F03A0E04EC00F00A6A2C
:102900003EC005F0066A060E116E126A55EC00F024
:10291000200E04EC00F0200E04EC00F0520E04EC4B
:1029200000F0330E04EC00F03A0E04EC00F00A6AFA
:1029300041C005F0066A060E116E126A55EC00F0F1
:10294000FE0E04EC00F0900E04EC00F0520E04ECCD
:1029500000F0340E04EC00F03A0E04EC00F00A6AC9
:1029600044C005F0066A060E116E126A55EC00F0BE
:10297000200E04EC00F0200E04EC00F0520E04ECEB
:1029800000F0350E04EC00F03A0E04EC00F00A6A98
:1029900047C005F0066A060E116E126A55EC00F08B
:1029A000200E04EC00F0200E04EC00F0520E04ECBB
:1029B00000F0360E04EC00F03A0E04EC00F00A6A67
:1029C0004AC005F0066A060E116E126A55EC00F058
:1029D000FE0E04EC00F0D00E04EC00F0520E04ECFD
:1029E00000F0370E04EC00F03A0E04EC00F00A6A36
:1029F0004CC005F0066A060E116E126A55EC00F026
:102A0000200E04EC00F0200E04EC00F0520E04EC5A
:102A100000F0380E04EC00F03A0E04EC00F00A6A04
:102A20004DC005F0066A060E116E126A55EC00F0F4
:102A30000B0E046EB80E84EC00F03B6A3E6A416AED
:102A4000446A476A4A6A4C6A4D6AFE0E04EC00F01A
:102A5000010E04EC00F0FE0E04EC00F0800E04EC1D
:102A600000F0200E04EC00F0440E04EC00F0490EDF
:102A700004EC00F0410E04EC00F0470E04EC00F012
:102A80004E0E04EC00F04F0E04EC00F0530E04EC7C
:102A900000F0540E04EC00F0490E04EC00F0430E7C
:102AA00004EC00F04F0E04EC00F0200E04EC00F0FB
:102AB000440E04EC00F0450E04EC00F0200E04EC93
:102AC00000F0FE0E04EC00F0C00E04EC00F0480E26
:102AD00004EC00F0410E04EC00F0520E04EC00F0A7
:102AE000440E04EC00F0570E04EC00F0410E04EC30
:102AF00000F0520E04EC00F0450E04EC00F03A0E2B
:102B000004EC00F0200E04EC00F0200E04EC00F0C9
:102B1000200E04EC00F0200E04EC00F0200E04EC7B
:102B200000F0200E04EC00F0200E04EC00F0FE0E8D
:102B300004EC00F0900E04EC00F02D0E04EC00F01C
:102B4000500E04EC00F0520E04EC00F0550E04ECB4
:102B500000F0450E04EC00F0420E04EC00F0410ED3
:102B600004EC00F0200E04EC00F0450E04EC00F044
:102B70004E0E04EC00F0540E04EC00F0520E04EC87
:102B800000F0410E04EC00F0440E04EC00F0410EA5
:102B900004EC00F0530E04EC00F0FE0E04EC00F028
:102BA000D00E04EC00F0200E04EC00F0200E04EC3B
:102BB00000F0200E04EC00F0200E04EC00F0200EDB
:102BC00004EC00F0200E04EC00F0200E04EC00F009
:102BD000200E04EC00F0200E04EC00F0200E04ECBB
:102BE00000F0200E04EC00F0200E04EC00F0200EAB
:102BF00004EC00F0200E04EC00F0200E04EC00F0D9
:102C0000200E04EC00F0030E046EE80E84EC00F0DD
:102C1000040082B010EF16F0010E556E11EF16F0A1
:102C2000556A040082B219EF16F0010E566E1AEFC3
:102C300016F0566A040082B422EF16F0010E576EA9
:102C400023EF16F0576AFE0E04EC00F0D00E04ECF1
:102C500000F0450E04EC00F0300E04EC00F03A0EEB
:102C600004EC00F00A6A55C005F0066A060E116E03
:102C7000126A55EC00F0200E04EC00F0450E04EC56
:102C800000F0310E04EC00F03A0E04EC00F00A6A99
:102C900056C005F0066A060E116E126A55EC00F079
:102CA000200E04EC00F0450E04EC00F0320E04ECB3
:102CB00000F03A0E04EC00F00A6A57C005F0066A0C
:102CC000060E116E126A55EC00F055500108D8A49A
:102CD000E868FF0A136E56500108D8A4E868FF0A96
:102CE000156E13C001F01550A4EC00F0156E166EB1
:102CF00057500108D8A4E868FF0A176E17C001F002
:102D000015501610A4EC00F0D8A48CEF16F00400B7
:102D100080A4EDEF00F07CD7070E046ED00E84EC9B
:102D200000F0FE0E04EC00F0010E04EC00F0FE0ECC
:102D300004EC00F0800E04EC00F0200E04EC00F037
:102D4000440E04EC00F0490E04EC00F0410E04ECDB
:102D500000F0470E04EC00F04E0E04EC00F04F0EB5
:102D600004EC00F0530E04EC00F0540E04EC00F000
:102D7000490E04EC00F0430E04EC00F04F0E04EC9E
:102D800000F0200E04EC00F0440E04EC00F0450EC0
:102D900004EC00F0200E04EC00F0FE0E04EC00F059
:102DA000C00E04EC00F0480E04EC00F0410E04EC00
:102DB00000F0520E04EC00F0440E04EC00F0570E4C
:102DC00004EC00F0410E04EC00F0520E04EC00F0B4
:102DD000450E04EC00F03A0E04EC00F0200E04EC7A
:102DE00000F0200E04EC00F0200E04EC00F0200EA9
:102DF00004EC00F0200E04EC00F0200E04EC00F0D7
:102E0000200E04EC00F0FE0E04EC00F0900E04EC3A
:102E100000F0200E04EC00F0200E04EC00F0200E78
:102E200004EC00F0200E04EC00F0200E04EC00F0A6
:102E3000200E04EC00F0200E04EC00F0200E04EC58
:102E400000F0200E04EC00F0200E04EC00F0200E48
:102E500004EC00F0200E04EC00F0200E04EC00F076
:102E6000200E04EC00F0200E04EC00F0200E04EC28
:102E700000F0FE0E04EC00F0D00E04EC00F02D0E7D
:102E800004EC00F0200E04EC00F0200E04EC00F046
:102E9000460E04EC00F0490E04EC00F04E0E04EC7B
:102EA00000F0410E04EC00F04C0E04EC00F0490E72
:102EB00004EC00F05A0E04EC00F0410E04EC00F0BB
:102EC000440E04EC00F04F0E04EC00F0210E04EC74
:102ED00000F0200E04EC00F02D0E04EC00F0050EC6
:102EE000046EDC0E84EC00F0FE0E04EC00F0010E2B
:102EF00004EC00F087EF07F0FE0E04EC00F0800E0B
:102F000004EC00F0200E04EC00F0200E04EC00F0C5
:102F1000200E04EC00F0200E04EC00F0200E04EC77
:102F200000F0200E04EC00F0200E04EC00F0200E67
:102F300004EC00F0200E04EC00F0200E04EC00F095
:102F4000200E04EC00F0200E04EC00F0200E04EC47
:102F500000F0200E04EC00F0200E04EC00F0FE0E59
:102F600004EC00F0C00E04EC00F04D0E04EC00F098
:102F70004F0E04EC00F0440E04EC00F04F0E04EC95
:102F800000F0200E04EC00F0530E04EC00F0540EA0
:102F900004EC00F0410E04EC00F04E0E04EC00F0E6
:102FA000440E04EC00F0200E04EC00F0420E04ECA1
:102FB00000F0590E04EC00F0450E04EC00F0210E78
:102FC00004EC00F0FE0E04EC00F0900E04EC00F0B7
:102FD000450E04EC00F0530E04EC00F0500E04EC2F
:102FE00000F0450E04EC00F0520E04EC00F0410E2F
:102FF00004EC00F04E0E04EC00F0440E04EC00F083
:103000004F0E04EC00F0200E04EC00F0410E04EC36
:1030100000F0550E04EC00F0580E04EC00F05F0ECA
:1030200004EC00F0300E04EC00F0FE0E04EC00F0B6
:10303000D00E04EC00F0200E04EC00F0200E04ECA6
:1030400000F0200E04EC00F0200E04EC00F0200E46
:1030500004EC00F0200E04EC00F0200E04EC00F074
:10306000200E04EC00F0200E04EC00F0200E04EC26
:1030700000F0200E04EC00F0200E04EC00F0200E16
:1030800004EC00F0200E04EC00F0200E04EC00F044
:10309000040082A04FEF21F0040080A254EF18F04A
:1030A000640E83EC00F028D7396A828A949A030E62
:1030B000046EE80E84EC00F0829A949A030E046E7B
:1030C000200E84EC00F0828A949A030E046EE80EBF
:1030D00084EC00F0FE0E04EC00F0010E04EC00F0B5
:1030E000829A949AFE0E04EC00F0010E04EC00F0BB
:1030F000320E83EC00F0FE0E04EC00F0800E04ECC7
:1031000000F0500E04EC00F0720E04EC00F06F0EB4
:1031100004EC00F0670E04EC00F0540E04EC00F038
:10312000690E04EC00F0650E04EC00F06D0E04EC8A
:1031300000F0700E04EC00F06F0E04EC00F0200EB6
:1031400004EC00F0650E04EC00F06E0E04EC00F0F0
:10315000200E04EC00F0520E04EC00F0310E04ECF2
:1031600000F0FE0E04EC00F0C00E04EC00F0540E73
:1031700004EC00F0310E04EC00F03A0E04EC00F028
:10318000200E04EC00F0020E0A6E5BC005F0066A29
:10319000060E116E126A55EC00F03A0E04EC00F0C7
:1031A000020E0A6E61C005F0066A060E116E126A02
:1031B00055EC00F03A0E04EC00F0020E0A6E67C007
:1031C00005F0066A060E116E126A55EC00F0FE0E4E
:1031D00004EC00F0900E04EC00F0530E04EC00F050
:1031E000410E04EC00F04C0E04EC00F0490E04EC2F
:1031F00000F0520E04EC00F0200E04EC00F0200E63
:1032000004EC00F02D0E04EC00F03E0E04EC00F097
:10321000280E04EC00F0530E04EC00F0540E04EC05
:1032200000F04F0E04EC00F0500E04EC00F0210E04
:1032300004EC00F0290E04EC00F0FE0E04EC00F0AB
:10324000D00E04EC00F0470E04EC00F0550E04EC38
:1032500000F0410E04EC00F0520E04EC00F0440EBD
:1032600004EC00F0410E04EC00F0520E04EC00F00F
:103270002D0E04EC00F03E0E04EC00F0280E04ECE1
:1032800000F0450E04EC00F04E0E04EC00F0540E7D
:1032900004EC00F0450E04EC00F0520E04EC00F0DB
:1032A000290E04EC00F0040080A287EF07F0040070
:1032B00080B679EF19F0010E046EF40E84EC00F084
:1032C000672A040067503C08D8A479EF19F0676AB0
:1032D000612A040061503C08D8A479EF19F0616AB2
:1032E0005B2A0400180E5B5CD8A079EF19F0180E69
:1032F0005B6E040080B480EF19F05B6A616A676AF4
:10330000040080BA9FEF19F00400010E675CD8A09A
:103310008CEF19F0010E3A6E0400010E615CD8A02A
:1033200094EF19F0010E3A6EFE0E04EC00F0010E5F
:1033300004EC00F0320E83EC00F0A0EF19F0DBD6C5
:10334000040080BAAFEF19F0828A949A030E046EDB
:10335000E80E84EC00F0829A949AAFEF19F0040022
:1033600080A287EF07F0FE0E04EC00F0800E04EC64
:1033700000F0500E04EC00F0720E04EC00F06F0E42
:1033800004EC00F0670E04EC00F0540E04EC00F0C6
:10339000690E04EC00F0650E04EC00F06D0E04EC18
:1033A00000F0700E04EC00F06F0E04EC00F0200E44
:1033B00004EC00F0650E04EC00F06E0E04EC00F07E
:1033C000200E04EC00F0520E04EC00F0320E04EC7F
:1033D00000F0FE0E04EC00F0C00E04EC00F0540E01
:1033E00004EC00F0320E04EC00F03A0E04EC00F0B5
:1033F000200E04EC00F0020E0A6E5CC005F0066AB6
:10340000060E116E126A55EC00F03A0E04EC00F054
:10341000020E0A6E62C005F0066A060E116E126A8E
:1034200055EC00F03A0E04EC00F0020E0A6E68C093
:1034300005F0066A060E116E126A55EC00F0FE0EDB
:1034400004EC00F0900E04EC00F0530E04EC00F0DD
:10345000410E04EC00F04C0E04EC00F0490E04ECBC
:1034600000F0520E04EC00F0200E04EC00F0200EF0
:1034700004EC00F02D0E04EC00F03E0E04EC00F025
:10348000280E04EC00F0530E04EC00F0540E04EC93
:1034900000F04F0E04EC00F0500E04EC00F0210E92
:1034A00004EC00F0290E04EC00F0FE0E04EC00F039
:1034B000D00E04EC00F0470E04EC00F0550E04ECC6
:1034C00000F0410E04EC00F0520E04EC00F0440E4B
:1034D00004EC00F0410E04EC00F0520E04EC00F09D
:1034E0002D0E04EC00F03E0E04EC00F0280E04EC6F
:1034F00000F0450E04EC00F04E0E04EC00F0540E0B
:1035000004EC00F0450E04EC00F0520E04EC00F068
:10351000290E04EC00F0040080B6ADEF1AF0010EA5
:10352000046EF40E84EC00F0682A040068503C0835
:10353000D8A4ADEF1AF0686A622A040062503C0811
:10354000D8A4ADEF1AF0626A5C2A0400180E5C5C25
:10355000D8A0ADEF1AF0180E5C6E040080B4B4EF82
:103560001AF05C6A626A686A040080BAD3EF1AF0E3
:103570000400010E685CD8A0C0EF1AF0010E3D6E89
:103580000400010E625CD8A0C8EF1AF0010E3D6E77
:10359000FE0E04EC00F0010E04EC00F0320E83ECA1
:1035A00000F0D4EF1AF0DBD6040080BAE3EF1AF093
:1035B000828A949A030E046EE80E84EC00F0829ADC
:1035C000949AE3EF1AF0040080A287EF07F0FE0E52
:1035D00004EC00F0800E04EC00F0500E04EC00F05F
:1035E000720E04EC00F06F0E04EC00F0670E04ECB9
:1035F00000F0540E04EC00F0690E04EC00F0650ECF
:1036000004EC00F06D0E04EC00F0700E04EC00F021
:103610006F0E04EC00F0200E04EC00F0650E04ECDC
:1036200000F06E0E04EC00F0200E04EC00F0520EE0
:1036300004EC00F0330E04EC00F0FE0E04EC00F09D
:10364000C00E04EC00F0540E04EC00F0330E04EC59
:1036500000F03A0E04EC00F0200E04EC00F0020E34
:103660000A6E5DC005F0066A060E116E126A55EC10
:1036700000F03A0E04EC00F0020E0A6E63C005F092
:10368000066A060E116E126A55EC00F03A0E04EC52
:1036900000F0020E0A6E69C005F0066A060E116E91
:1036A000126A55EC00F0FE0E04EC00F0900E04ECF3
:1036B00000F0530E04EC00F0410E04EC00F04C0E50
:1036C00004EC00F0490E04EC00F0520E04EC00F0A3
:1036D000200E04EC00F0200E04EC00F02D0E04ECA3
:1036E00000F03E0E04EC00F0280E04EC00F0530E47
:1036F00004EC00F0540E04EC00F04F0E04EC00F06B
:10370000500E04EC00F0210E04EC00F0290E04EC45
:1037100000F0FE0E04EC00F0D00E04EC00F0470EBA
:1037200004EC00F0550E04EC00F0410E04EC00F047
:10373000520E04EC00F0440E04EC00F0410E04ECD8
:1037400000F0520E04EC00F02D0E04EC00F03E0EE2
:1037500004EC00F0280E04EC00F0450E04EC00F040
:103760004E0E04EC00F0540E04EC00F0450E04EC98
:1037700000F0520E04EC00F0290E04EC00F00400FE
:1037800080B6E1EF1BF0010E046EF40E84EC00F045
:10379000692A040069503C08D8A4E1EF1BF0696A6B
:1037A000632A040063503C08D8A4E1EF1BF0636A6D
:1037B0005D2A0400180E5D5CD8A0E1EF1BF0180E26
:1037C0005D6E040080B4E8EF1BF05D6A636A696AAD
:1037D000040080BA07EF1CF00400010E695CD8A059
:1037E000F4EF1BF0010E406E0400010E635CD8A0E4
:1037F000FCEF1BF0010E406EFE0E04EC00F0010E1B
:1038000004EC00F0320E83EC00F008EF1CF0DBD685
:10381000040080BA17EF1CF0828A949A030E046E9B
:10382000E80E84EC00F0829A949A17EF1CF00400E2
:1038300080A287EF07F0FE0E04EC00F0800E04EC8F
:1038400000F0500E04EC00F0720E04EC00F06F0E6D
:1038500004EC00F0670E04EC00F0540E04EC00F0F1
:10386000690E04EC00F0650E04EC00F06D0E04EC43
:1038700000F0700E04EC00F06F0E04EC00F0200E6F
:1038800004EC00F0650E04EC00F06E0E04EC00F0A9
:10389000200E04EC00F0520E04EC00F0340E04ECA8
:1038A00000F0FE0E04EC00F0C00E04EC00F0540E2C
:1038B00004EC00F0340E04EC00F03A0E04EC00F0DE
:1038C000200E04EC00F0020E0A6E5EC005F0066ADF
:1038D000060E116E126A55EC00F03A0E04EC00F080
:1038E000020E0A6E64C005F0066A060E116E126AB8
:1038F00055EC00F03A0E04EC00F0020E0A6E6AC0BD
:1039000005F0066A060E116E126A55EC00F0FE0E06
:1039100004EC00F0900E04EC00F0530E04EC00F008
:10392000410E04EC00F04C0E04EC00F0490E04ECE7
:1039300000F0520E04EC00F0200E04EC00F0200E1B
:1039400004EC00F02D0E04EC00F03E0E04EC00F050
:10395000280E04EC00F0530E04EC00F0540E04ECBE
:1039600000F04F0E04EC00F0500E04EC00F0210EBD
:1039700004EC00F0290E04EC00F0FE0E04EC00F064
:10398000D00E04EC00F0470E04EC00F0550E04ECF1
:1039900000F0410E04EC00F0520E04EC00F0440E76
:1039A00004EC00F0410E04EC00F0520E04EC00F0C8
:1039B0002D0E04EC00F03E0E04EC00F0280E04EC9A
:1039C00000F0450E04EC00F04E0E04EC00F0540E36
:1039D00004EC00F0450E04EC00F0520E04EC00F094
:1039E000290E04EC00F0040080B615EF1DF0010E66
:1039F000046EF40E84EC00F06A2A04006A503C085D
:103A0000D8A415EF1DF06A6A642A040064503C08CB
:103A1000D8A415EF1DF0646A5E2A0400180E5E5CDF
:103A2000D8A015EF1DF0180E5E6E040080B41CEFD8
:103A30001DF05E6A646A6A6A040080BA3BEF1DF09A
:103A40000400010E6A5CD8A028EF1DF0010E436E41
:103A50000400010E645CD8A030EF1DF0010E436E2F
:103A6000FE0E04EC00F0010E04EC00F0320E83ECCC
:103A700000F03CEF1DF0DBD6040080BA4BEF1DF0E8
:103A8000828A949A030E046EE80E84EC00F0829A07
:103A9000949A4BEF1DF0040080A287EF07F0FE0E12
:103AA00004EC00F0800E04EC00F0500E04EC00F08A
:103AB000720E04EC00F06F0E04EC00F0670E04ECE4
:103AC00000F0540E04EC00F0690E04EC00F0650EFA
:103AD00004EC00F06D0E04EC00F0700E04EC00F04D
:103AE0006F0E04EC00F0200E04EC00F0650E04EC08
:103AF00000F06E0E04EC00F0200E04EC00F0520E0C
:103B000004EC00F0350E04EC00F0FE0E04EC00F0C6
:103B1000C00E04EC00F0540E04EC00F0350E04EC82
:103B200000F03A0E04EC00F0200E04EC00F0020E5F
:103B30000A6E5FC005F0066A060E116E126A55EC39
:103B400000F03A0E04EC00F0020E0A6E65C005F0BB
:103B5000066A060E116E126A55EC00F03A0E04EC7D
:103B600000F0020E0A6E6BC005F0066A060E116EBA
:103B7000126A55EC00F0FE0E04EC00F0900E04EC1E
:103B800000F0530E04EC00F0410E04EC00F04C0E7B
:103B900004EC00F0490E04EC00F0520E04EC00F0CE
:103BA000200E04EC00F0200E04EC00F02D0E04ECCE
:103BB00000F03E0E04EC00F0280E04EC00F0530E72
:103BC00004EC00F0540E04EC00F04F0E04EC00F096
:103BD000500E04EC00F0210E04EC00F0290E04EC71
:103BE00000F0FE0E04EC00F0D00E04EC00F0470EE6
:103BF00004EC00F0550E04EC00F0410E04EC00F073
:103C0000520E04EC00F0440E04EC00F0410E04EC03
:103C100000F0520E04EC00F02D0E04EC00F03E0E0D
:103C200004EC00F0280E04EC00F0450E04EC00F06B
:103C30004E0E04EC00F0540E04EC00F0450E04ECC3
:103C400000F0520E04EC00F0290E04EC00F0040029
:103C500080B649EF1EF0010E046EF40E84EC00F005
:103C60006B2A04006B503C08D8A449EF1EF06B6A25
:103C7000652A040065503C08D8A449EF1EF0656A27
:103C80005F2A0400180E5F5CD8A049EF1EF0180EE2
:103C90005F6E040080B450EF1EF05F6A656A6B6A65
:103CA000040080BA6FEF1EF00400010E6B5CD8A018
:103CB0005CEF1EF0010E466E0400010E655CD8A09C
:103CC00064EF1EF0010E466EFE0E04EC00F0010ED5
:103CD00004EC00F0320E83EC00F070EF1EF0DBD647
:103CE000040080BA7FEF1EF0828A949A030E046E5D
:103CF000E80E84EC00F0829A949A7FEF1EF0FE0E9C
:103D000004EC00F0800E04EC00F0500E04EC00F027
:103D1000720E04EC00F06F0E04EC00F0670E04EC81
:103D200000F0540E04EC00F0690E04EC00F0650E97
:103D300004EC00F06D0E04EC00F0700E04EC00F0EA
:103D40006F0E04EC00F0200E04EC00F0650E04ECA5
:103D500000F06E0E04EC00F0200E04EC00F0520EA9
:103D600004EC00F0360E04EC00F0FE0E04EC00F063
:103D7000C00E04EC00F0540E04EC00F0360E04EC1F
:103D800000F03A0E04EC00F0200E04EC00F0020EFD
:103D90000A6E60C005F0066A060E116E126A55ECD6
:103DA00000F03A0E04EC00F0020E0A6E66C005F058
:103DB000066A060E116E126A55EC00F03A0E04EC1B
:103DC00000F0020E0A6E6CC005F0066A060E116E57
:103DD000126A55EC00F0FE0E04EC00F0900E04ECBC
:103DE00000F0530E04EC00F0410E04EC00F04C0E19
:103DF00004EC00F0490E04EC00F0520E04EC00F06C
:103E0000200E04EC00F0200E04EC00F02D0E04EC6B
:103E100000F03E0E04EC00F0280E04EC00F0530E0F
:103E200004EC00F0540E04EC00F04F0E04EC00F033
:103E3000500E04EC00F0210E04EC00F0290E04EC0E
:103E400000F0FE0E04EC00F0D00E04EC00F0470E83
:103E500004EC00F0550E04EC00F0410E04EC00F010
:103E6000520E04EC00F0440E04EC00F0410E04ECA1
:103E700000F0520E04EC00F02D0E04EC00F03E0EAB
:103E800004EC00F0280E04EC00F0450E04EC00F009
:103E90004E0E04EC00F0540E04EC00F0450E04EC61
:103EA00000F0520E04EC00F0290E04EC00F00400C7
:103EB00080A287EF07F0040080B67DEF1FF0010EAF
:103EC000046EF40E84EC00F06C2A04006C503C0884
:103ED000D8A47DEF1FF06C6A662A040066503C0887
:103EE000D8A47DEF1FF0666A602A0400180E605C9B
:103EF000D8A07DEF1FF0180E606E040080B484EF30
:103F00001FF0606A666A6C6A040080BA11EF20F0E4
:103F10000400010E6C5CD8A090EF1FF0010E496EFA
:103F20000400010E665CD8A098EF1FF0010E496EE8
:103F3000FE0E04EC00F0010E04EC00F0FE0E04ECAA
:103F400000F0C00E04EC00F0200E04EC00F0200E97
:103F500004EC00F0200E04EC00F0500E04EC00F035
:103F6000410E04EC00F0520E04EC00F0410E04ECA3
:103F700000F04D0E04EC00F0450E04EC00F0540E81
:103F800004EC00F0520E04EC00F04F0E04EC00F0D4
:103F9000530E04EC00F0200E04EC00F0200E04ECB4
:103FA00000F0200E04EC00F0FE0E04EC00F0900E89
:103FB00004EC00F0200E04EC00F0200E04EC00F005
:103FC000430E04EC00F04F0E04EC00F04E0E04EC37
:103FD00000F0460E04EC00F0490E04EC00F0470E31
:103FE00004EC00F0550E04EC00F0520E04EC00F06E
:103FF000410E04EC00F0440E04EC00F04F0E04EC13
:1040000000F0530E04EC00F0200E04EC00F0200E43
:1040100004EC00F0040E046EB00E84EC00F012EF1D
:1040200020F06DD65BC026F061C02CF067C032F086
:104030005CC027F062C02DF068C033F05DC028F08E
:1040400063C02EF069C034F05EC029F064C02FF068
:104050006AC035F05FC02AF065C030F06BC036F042
:1040600060C02BF066C031F06CC037F0FE0E04EC7F
:1040700000F0800E04EC00F0410E04EC00F0720E33
:1040800004EC00F0720E04EC00F0610E04EC00F0A1
:104090006E0E04EC00F0710E04EC00F0750E04ECF2
:1040A00000F0650E04EC00F0200E04EC00F0650E4C
:1040B00004EC00F06E0E04EC00F0200E04EC00F0B6
:1040C0004D0E04EC00F04F0E04EC00F0440E04EC36
:1040D00000F04F0E04EC00F0FE0E04EC00F0C00EF9
:1040E00004EC00F04E0E04EC00F04F0E04EC00F077
:1040F000520E04EC00F04D0E04EC00F0410E04EC06
:1041000000F04C0E04EC00F0200E04EC00F0200E49
:1041100004EC00F0200E04EC00F0200E04EC00F0A3
:10412000200E04EC00F0200E04EC00F0200E04EC55
:1041300000F0280E04EC00F02D0E04EC00F0290E27
:1041400004EC00F0FE0E04EC00F0900E04EC00F025
:10415000530E04EC00F0450E04EC00F0430E04ECAA
:1041600000F0550E04EC00F0450E04EC00F04E0E8D
:1041700004EC00F0430E04EC00F0490E04EC00F0F7
:10418000410E04EC00F04C0E04EC00F0200E04ECA8
:1041900000F0200E04EC00F0200E04EC00F0280EDD
:1041A00004EC00F02B0E04EC00F0290E04EC00F0FF
:1041B000FE0E04EC00F0D00E04EC00F0500E04EC07
:1041C00000F0410E04EC00F0530E04EC00F04F0E32
:1041D00004EC00F0200E04EC00F0410E04EC00F0C2
:1041E000200E04EC00F0500E04EC00F0410E04EC44
:1041F00000F0530E04EC00F04F0E04EC00F0200E23
:1042000004EC00F0200E04EC00F0280E04EC00F0AA
:10421000450E04EC00F0290E04EC00F0040080B818
:1042200022EF21F0FE0E04EC00F0010E04EC00F091
:10423000010E396EFE0E04EC00F0010E04EC00F0ED
:104240007CEF17F0040080B636EF21F0FE0E04EC90
:1042500000F0010E04EC00F0020E396EFE0E04ECCC
:1042600000F0010E04EC00F07CEF17F0040080BABF
:104270004AEF21F0FE0E04EC00F0010E04EC00F019
:10428000030E396EFE0E04EC00F0010E04EC00F09B
:104290007CEF17F0040080A2EDEF00F0E7D60400F9
:1042A00039500108D8B49AEF26F0040039500208BA
:1042B000D8B462EF21F0040039500308D8B4A2EF5B
:1042C0002AF0EDD7E86A82A2E868136EE86A82B441
:1042D000E868156E13C001F01550A4EC00F0156EDF
:1042E000166E040015501610D8B47DEF21F0838EA1
:1042F000959E010E4D6E95EF21F0E86A82B2E86856
:10430000136EE86A82A4E868156E13C001F01550B8
:10431000ABEC00F0156E166E040015501610D8B4F4
:1043200095EF21F0839E959E4D6A010E4E6E5A6A5E
:10433000596A586A838C959C010E4C6EA0EF21F04F
:10434000E86A82A2E868136EE86A82B4E868156ECB
:1043500013C001F01550A4EC00F0156E166E0400A9
:1043600015501610D8B4BBEF21F0838E959E010E28
:104370004D6ED3EF21F0E86A82B2E868136EE86A06
:1043800082A4E868156E13C001F01550ABEC00F084
:10439000156E166E040015501610D8B4D3EF21F028
:1043A000839E959E4D6A04003A500008D8B423EFCE
:1043B00022F0040080B2DFEF21F0DEEC30F08BEC75
:1043C00025F05B50585CD8A4E868FF0A136E615072
:1043D000595CD8A4E868FF0A156E13C001F01550A7
:1043E000A4EC00F0156E166E67505A5CD8A4E8680D
:1043F000FF0A176E15501610016E1750A4EC00F04E
:10440000176E186E040017501810D8B411EF22F070
:10441000839095903B6A3A6A586A596A5A6A23EFC0
:1044200022F004003A500108D8A41BEF22F0838048
:104430009590010E3B6E010E046EC20E84EC00F0EE
:104440000FEC33F07DD7E86A82A2E868136EE86A61
:1044500082B4E868156E13C001F01550A4EC00F0AA
:10446000156E166E040015501610D8B43EEF22F0EB
:10447000838E959E010E4D6E56EF22F0E86A82B251
:10448000E868136EE86A82A4E868156E13C001F04C
:104490001550ABEC00F0156E166E0400155016109A
:1044A000D8B456EF22F0839E959E4D6A04003D508D
:1044B0000008D8A45EEF22F0A8EF22F0040080B23A
:1044C00064EF22F0DEEC30F08BEC25F05C50585CB1
:1044D000D8A4E868FF0A136E6250595CD8A4E86853
:1044E000FF0A156E13C001F01550A4EC00F0156E14
:1044F000166E68505A5CD8A4E868FF0A176E15500B
:104500001610016E1750A4EC00F0176E186E040020
:1045100017501810D8B496EF22F0839295923E6A05
:104520003D6A586A596A5A6AA8EF22F004003D5061
:104530000108D8A4A0EF22F083829592010E3E6E6E
:10454000010E046EC20E84EC00F00FEC33F07BD74A
:10455000E86A82A2E868136EE86A82B4E868156EB9
:1045600013C001F01550A4EC00F0156E166E040097
:1045700015501610D8B4C3EF22F0838E959E010E0D
:104580004D6EDBEF22F0E86A82B2E868136EE86AEB
:1045900082A4E868156E13C001F01550ABEC00F072
:1045A000156E166E040015501610D8B4DBEF22F00D
:1045B000839E959E4D6A040040500008D8A4E3EF06
:1045C00022F02DEF23F0040080B2E9EF22F0DEECC0
:1045D00030F08BEC25F05D50585CD8A4E868FF0AF9
:1045E000136E6350595CD8A4E868FF0A156E13C0B7
:1045F00001F01550A4EC00F0156E166E69505A5C6F
:10460000D8A4E868FF0A176E15501610016E1750EF
:10461000A4EC00F0176E186E040017501810D8B4F0
:104620001BEF23F083949594416A406A586A596A53
:104630005A6A2DEF23F0040040500108D8A425EF5A
:1046400023F083849594010E416E010E046EC20E18
:1046500084EC00F00FEC33F07BD7E86A82A2E868C4
:10466000136EE86A82B4E868156E13C001F0155045
:10467000A4EC00F0156E166E040015501610D8B498
:1046800048EF23F0838E959E010E4D6E60EF23F070
:10469000E86A82B2E868136EE86A82A4E868156E78
:1046A00013C001F01550ABEC00F0156E166E04004F
:1046B00015501610D8B460EF23F0839E959E4D6A76
:1046C000040043500008D8A468EF23F0B1EF23F0B2
:1046D000040080B26EEF23F0DEEC30F08BEC25F0BE
:1046E0005E50585CD8A4E868FF0A136E6450595CA9
:1046F000D8A4E868FF0A156E13C001F01550A4ECA9
:1047000000F0156E166E6A505A5CD8A4E868FF0A6D
:10471000176E15501610016E1750A4EC00F0176EAE
:10472000186E040017501810D8B49FEF23F083962A
:104730009596446A436A586A596A5A6A8ED7040041
:1047400043500108D8A4A9EF23F083869596010E63
:10475000446E010E046EC20E84EC00F00FEC33F0D8
:104760007CD7E86A82A2E868136EE86A82B4E868D7
:10477000156E13C001F01550A4EC00F0156E166E06
:10478000040015501610D8B4CCEF23F0838E959EFC
:10479000010E4D6EE4EF23F0E86A82B2E868136E12
:1047A000E86A82A4E868156E13C001F01550ABECFE
:1047B00000F0156E166E040015501610D8B4E4EF14
:1047C00023F0839E959E4D6A040046500008D8A4AD
:1047D000ECEF23F035EF24F0040080B2F2EF23F089
:1047E000DEEC30F08BEC25F05D50585CD8A4E86826
:1047F000FF0A136E6550595CD8A4E868FF0A156E6D
:1048000013C001F01550A4EC00F0156E166E6B503D
:104810005A5CD8A4E868FF0A176E15501610016E8E
:104820001750A4EC00F0176E186E04001750181003
:10483000D8B423EF24F083989598476A466A586A5B
:10484000596A5A6A8ED7040046500108D8A42DEF41
:1048500024F083889598010E476E010E046EC20EF7
:1048600084EC00F00FEC33F07CD7E86A82A2E868B1
:10487000136EE86A82B4E868156E13C001F0155033
:10488000A4EC00F0156E166E040015501610D8B486
:1048900050EF24F0838E959E010E4D6E68EF24F04C
:1048A000E86A82B2E868136EE86A82A4E868156E66
:1048B00013C001F01550ABEC00F0156E166E04003D
:1048C00015501610D8B468EF24F0839E959E4D6A5B
:1048D0003A500008D8A4E868FF0A136E3D5000085B
:1048E000D8A4E868FF0A156E13C001F01550A4ECB7
:1048F00000F0156E166E40500008D8A4E868FF0A54
:10490000176E15501610016E1750A4EC00F0176EBC
:10491000186E43500008D8A4E868FF0A196E1750B3
:104920001810016E1950A4EC00F0196E1A6E465062
:104930000008D8A4E868FF0A1B6E19501A10016E0F
:104940001B50A4EC00F01B6E1C6E49500008D8A44C
:10495000E868FF0A1D6E1B501C10016E1D50A4EC70
:1049600000F01D6E1E6E04001D501E10D8B444EFE2
:1049700025F0839C959CFE0E04EC00F0010E04ECE7
:1049800000F0FE0E04EC00F0C00E04EC00F0540E3B
:1049900004EC00F0490E04EC00F0450E04EC00F0CD
:1049A0004D0E04EC00F0500E04EC00F04F0E04EC41
:1049B00000F0200E04EC00F0500E04EC00F0520E5B
:1049C00004EC00F04F0E04EC00F0470E04EC00F095
:1049D000520E04EC00F0410E04EC00F04D0E04EC1D
:1049E00000F0410E04EC00F0FE0E04EC00F0900E1E
:1049F00004EC00F0200E04EC00F0530E04EC00F088
:104A0000450E04EC00F0430E04EC00F0200E04EC24
:104A100000F0540E04EC00F0450E04EC00F0520ED1
:104A200004EC00F04D0E04EC00F0490E04EC00F034
:104A30004E0E04EC00F0410E04EC00F0440E04ECC9
:104A400000F04F0E04EC00F0200E04EC00F0828A1F
:104A5000949A070E046ED00E84EC00F0829A949A19
:104A6000010E3A6E010E3D6E010E406E010E436E58
:104A7000010E466E010E496EFE0E04EC00F0010EB2
:104A800004EC00F07CEF17F0040080B24AEF25F050
:104A9000DEEC30F08BEC25F06050585CD8A4E86870
:104AA000FF0A136E6650595CD8A4E868FF0A156EB9
:104AB00013C001F01550A4EC00F0156E166E6C508A
:104AC0005A5CD8A4E868FF0A176E15501610016EDC
:104AD0001750A4EC00F0176E186E04001750181051
:104AE000D8B479EF25F0839A959A4A6A496A586A48
:104AF000596A040049500108D8A483EF25F0838A3D
:104B0000959A010E4A6E010E046EC20E84EC00F0FE
:104B10000FEC33F0AAD6FE0E04EC00F0800E04EC8D
:104B200000F0540E04EC00F0690E04EC00F0650E89
:104B300004EC00F06D0E04EC00F0700E04EC00F0DC
:104B40006F0E04EC00F03A0E04EC00F0020E0A6E58
:104B500058C005F0066A060E116E126A55EC00F098
:104B60003A0E04EC00F0020E0A6E59C005F0066A17
:104B7000060E116E126A55EC00F03A0E04EC00F0CD
:104B8000020E0A6E5AC005F0066A060E116E126A0F
:104B900055EC00F0FE0E04EC00F0C00E04EC00F04A
:104BA000520E04EC00F0310E04EC00F03A0E04EC6E
:104BB00000F00A6A3BC005F0066A060E116E126A22
:104BC00055EC00F0200E04EC00F0200E04EC00F098
:104BD000520E04EC00F0320E04EC00F03A0E04EC3D
:104BE00000F00A6A3EC005F0066A060E116E126AEF
:104BF00055EC00F0200E04EC00F0200E04EC00F068
:104C0000520E04EC00F0330E04EC00F03A0E04EC0B
:104C100000F00A6A41C005F0066A060E116E126ABB
:104C200055EC00F0FE0E04EC00F0900E04EC00F0E9
:104C3000520E04EC00F0340E04EC00F03A0E04ECDA
:104C400000F00A6A44C005F0066A060E116E126A88
:104C500055EC00F0200E04EC00F0200E04EC00F007
:104C6000520E04EC00F0350E04EC00F03A0E04ECA9
:104C700000F00A6A47C005F0066A060E116E126A55
:104C800055EC00F0200E04EC00F0200E04EC00F0D7
:104C9000520E04EC00F0360E04EC00F03A0E04EC78
:104CA00000F00A6A4AC005F0066A060E116E126A22
:104CB00055EC00F0FE0E04EC00F0D00E04EC00F019
:104CC000520E04EC00F0370E04EC00F03A0E04EC47
:104CD00000F00A6A4CC005F0066A060E116E126AF0
:104CE00055EC00F0200E04EC00F0200E04EC00F077
:104CF000520E04EC00F0380E04EC00F03A0E04EC16
:104D000000F00A6A4DC005F0066A060E116E126ABE
:104D100055EC00F02D0E04EC00F04D0E04EC00F00C
:104D2000530E04EC00F0450E04EC00F0430E04ECCE
:104D300000F012005A6A596A586A040080B2A3EF60
:104D400026F0DEEC30F0E86A82A2E868136EE86ACA
:104D500082B4E868156E13C001F01550A4EC00F0A1
:104D6000156E166E040015501610D8B4BEEF26F05E
:104D7000838E959E010E4D6ED6EF26F0E86A82B2C4
:104D8000E868136EE86A82A4E868156E13C001F043
:104D90001550ABEC00F0156E166E04001550161091
:104DA000D8B4D6EF26F0839E959E4D6A838C959C51
:104DB000010E4C6E010E4E6E5B50585CD8A4E86834
:104DC000FF0A136E6150595CD8A4E868FF0A156E9B
:104DD00013C001F01550A4EC00F0156E166E67506C
:104DE0005A5CD8A4E868FF0A176E15501610016EB9
:104DF0001750A4EC00F0176E186E0400175018102E
:104E0000D8B407EF27F0839095903B6A3A6A5C50DC
:104E1000585CD8A4E868FF0A136E6250595CD8A4A5
:104E2000E868FF0A156E13C001F01550A4EC00F0FD
:104E3000156E166E68505A5CD8A4E868FF0A176EA3
:104E400015501610016E1750A4EC00F0176E186E76
:104E5000040017501810D8B432EF27F083929592BF
:104E60003E6A3D6A5D50585CD8A4E868FF0A136E3C
:104E70006350595CD8A4E868FF0A156E13C001F0AE
:104E80001550A4EC00F0156E166E69505A5CD8A44B
:104E9000E868FF0A176E15501610016E1750A4EC43
:104EA00000F0176E186E040017501810D8B45DEF9C
:104EB00027F083949594416A406A5E50585CD8A468
:104EC000E868FF0A136E6450595CD8A4E868FF0ACA
:104ED000156E13C001F01550A4EC00F0156E166E9F
:104EE0006A505A5CD8A4E868FF0A176E155016106D
:104EF000016E1750A4EC00F0176E186E04001750E6
:104F00001810D8B488EF27F083969596446A436AC0
:104F10005F50585CD8A4E868FF0A136E6550595C6E
:104F2000D8A4E868FF0A156E13C001F01550A4EC70
:104F300000F0156E166E6B505A5CD8A4E868FF0A34
:104F4000176E15501610016E1750A4EC00F0176E76
:104F5000186E040017501810D8B4B3EF27F08398D8
:104F60009598476A466A6050585CD8A4E868FF0A7A
:104F7000136E6650595CD8A4E868FF0A156E13C01A
:104F800001F01550A4EC00F0156E166E6C505A5CD2
:104F9000D8A4E868FF0A176E15501610016E175056
:104FA000A4EC00F0176E186E040017501810D8B457
:104FB000DEEF27F0839A959A4A6A496A04003A50CC
:104FC0000108D8A4E8EF27F083809590010E3B6E8E
:104FD00004003D500108D8A4F2EF27F08382959297
:104FE000010E3E6E040040500108D8A4FCEF27F0EB
:104FF00083849594010E416E040043500108D8A4A7
:1050000006EF28F083869596010E446E0400465004
:105010000108D8A410EF28F083889598010E476EF8
:10502000040049500108D8A41AEF28F0838A959A01
:10503000010E4A6EFE0E04EC00F0800E04EC00F04F
:10504000540E04EC00F0690E04EC00F0650E04EC64
:1050500000F06D0E04EC00F0700E04EC00F06F0E2A
:1050600004EC00F03A0E04EC00F0020E0A6E58C098
:1050700005F0066A060E116E126A55EC00F03A0E43
:1050800004EC00F0020E0A6E59C005F0066A060E26
:10509000116E126A55EC00F03A0E04EC00F0020EAC
:1050A0000A6E5AC005F0066A060E116E126A55ECB9
:1050B00000F0FE0E04EC00F0C00E04EC00F0520E06
:1050C00004EC00F0310E04EC00F03A0E04EC00F0B9
:1050D0000A6A3BC005F0066A060E116E126A55ECAC
:1050E00000F0200E04EC00F0200E04EC00F0520E54
:1050F00004EC00F0320E04EC00F03A0E04EC00F088
:105100000A6A3EC005F0066A060E116E126A55EC78
:1051100000F0200E04EC00F0200E04EC00F0520E23
:1051200004EC00F0330E04EC00F03A0E04EC00F056
:105130000A6A41C005F0066A060E116E126A55EC45
:1051400000F0FE0E04EC00F0900E04EC00F0520EA5
:1051500004EC00F0340E04EC00F03A0E04EC00F025
:105160000A6A44C005F0066A060E116E126A55EC12
:1051700000F0200E04EC00F0200E04EC00F0520EC3
:1051800004EC00F0350E04EC00F03A0E04EC00F0F4
:105190000A6A47C005F0066A060E116E126A55ECDF
:1051A00000F0200E04EC00F0200E04EC00F0520E93
:1051B00004EC00F0360E04EC00F03A0E04EC00F0C3
:1051C0000A6A4AC005F0066A060E116E126A55ECAC
:1051D00000F0FE0E04EC00F0D00E04EC00F0520ED5
:1051E00004EC00F0370E04EC00F03A0E04EC00F092
:1051F0000A6A4CC005F0066A060E116E126A55EC7A
:1052000000F0200E04EC00F0200E04EC00F0520E32
:1052100004EC00F0380E04EC00F03A0E04EC00F060
:105220000A6A4DC005F0066A060E116E126A55EC48
:1052300000F0200E04EC00F02D0E04EC00F04D0EFA
:1052400004EC00F0430E04EC00F04F0E04EC00F010
:105250004D0E04EC00F0010E046EC20E84EC00F062
:105260000FEC33F03A500008D8A4E868FF0A136E38
:105270003D500008D8A4E868FF0A156E13C001F07D
:105280001550A4EC00F0156E166E40500008D8A41E
:10529000E868FF0A176E15501610016E1750A4EC3F
:1052A00000F0176E186E43500008D8A4E868FF0A93
:1052B000196E17501810016E1950A4EC00F0196EF9
:1052C0001A6E46500008D8A4E868FF0A1B6E1950F1
:1052D0001A10016E1B50A4EC00F01B6E1C6E49509E
:1052E0000008D8A4E868FF0A1D6E1B501C10016E50
:1052F0001D50A4EC00F01D6E1E6E04001D501E100B
:10530000D8B49AEF2AF0839C959C4C6A5A6A596AE1
:10531000586A26C05BF02CC061F032C067F027C02D
:105320005CF02DC062F028C05DF02EC063F034C088
:1053300069F029C05EF02FC064F035C06AF02AC061
:105340005FF030C065F036C06BF02BC060F031C04C
:1053500066F037C06CF0FE0E04EC00F0010E04ECB9
:1053600000F0FE0E04EC00F0800E04EC00F0200EC5
:1053700004EC00F0200E04EC00F0200E04EC00F031
:10538000200E04EC00F0200E04EC00F0200E04ECE3
:1053900000F0200E04EC00F0200E04EC00F0200ED3
:1053A00004EC00F0200E04EC00F0200E04EC00F001
:1053B000200E04EC00F0200E04EC00F0200E04ECB3
:1053C00000F0200E04EC00F0FE0E04EC00F0C00E25
:1053D00004EC00F0540E04EC00F0490E04EC00F074
:1053E000450E04EC00F04D0E04EC00F0500E04EC01
:1053F00000F04F0E04EC00F0200E04EC00F0500E14
:1054000004EC00F0520E04EC00F04F0E04EC00F03F
:10541000470E04EC00F0520E04EC00F0410E04ECD8
:1054200000F04D0E04EC00F0410E04EC00F0FE0E16
:1054300004EC00F0900E04EC00F0200E04EC00F000
:10544000430E04EC00F04F0E04EC00F04D0E04ECA3
:1054500000F0200E04EC00F0540E04EC00F0450EB9
:1054600004EC00F0520E04EC00F04D0E04EC00F0E1
:10547000490E04EC00F04E0E04EC00F0410E04EC7A
:1054800000F0440E04EC00F04F0E04EC00F0200E8F
:1054900004EC00F0FE0E04EC00F0D00E04EC00F082
:1054A000200E04EC00F0200E04EC00F0200E04ECC2
:1054B00000F0200E04EC00F0200E04EC00F0200EB2
:1054C00004EC00F0200E04EC00F0200E04EC00F0E0
:1054D000200E04EC00F0200E04EC00F0200E04EC92
:1054E00000F0200E04EC00F0200E04EC00F0200E82
:1054F00004EC00F0200E04EC00F0828A949A070E6F
:10550000046ED00E84EC00F0829A949A010E3A6EEA
:10551000010E3D6E010E406E010E436E010E466E91
:10552000010E496EFE0E04EC00F0010E04EC00F0DA
:105530007CEF17F0040080B2A0EF2AF0DEEC30F030
:105540009DEF26F0040082B2ACEF2AF0838E959E88
:10555000010E4D6EAFEF2AF0839E959E4D6A010EAF
:105560004E6E5A6A596A586A838C959C010E4C6E2D
:10557000BAEF2AF0040082B2C4EF2AF0838E959E1F
:10558000010E4D6EC7EF2AF0839E959E4D6A040072
:105590003A500008D8A4D5EF2AF0FE0E04EC00F033
:1055A000010E04EC00F025EF2BF0040080B2DBEFDD
:1055B0002AF0DEEC30F0D2EC2EF05B50585CD8A430
:1055C000E868FF0A136E6150595CD8A4E868FF0AC6
:1055D000156E13C001F01550A4EC00F0156E166E98
:1055E00067505A5CD8A4E868FF0A176E1550161069
:1055F000016E1750A4EC00F0176E186E04001750DF
:105600001810D8B413EF2BF0839095903B6A3A6A48
:10561000586A596A5A6AFE0E04EC00F0010E04EC56
:1056200000F025EF2BF004003A500108D8A41DEF3C
:105630002BF083809590010E3B6E010E046EC20E1E
:1056400084EC00F00FEC33F095D7010E3C6EDEECED
:105650002FF0040082A42EEF2BF0F7D7040082B2C3
:1056600038EF2BF0838E959E010E4D6E3BEF2BF0A5
:10567000839E959E4D6A04003D500008D8A449EFD2
:105680002BF0FE0E04EC00F0010E04EC00F099EF9C
:105690002BF0040080B24FEF2BF0DEEC30F0D2ECB8
:1056A0002EF05C50585CD8A4E868FF0A136E625074
:1056B000595CD8A4E868FF0A156E13C001F01550B4
:1056C000A4EC00F0156E166E68505A5CD8A4E86819
:1056D000FF0A176E15501610016E1750A4EC00F05B
:1056E000176E186E040017501810D8B487EF2BF0FF
:1056F000839295923E6A3D6A586A596A5A6AFE0ECA
:1057000004EC00F0010E04EC00F099EF2BF0040023
:105710003D500108D8A491EF2BF083829592010EA1
:105720003E6E010E046EC20E84EC00F00FEC33F0FE
:1057300095D7010E3F6EDEEC2FF0040082A4A2EF9D
:105740002BF0F7D7040082B2ACEF2BF0838E959E3E
:10575000010E4D6EAFEF2BF0839E959E4D6A0400B7
:1057600040500008D8A4BDEF2BF0FE0E04EC00F072
:10577000010E04EC00F00DEF2CF0040080B2C3EF3A
:105780002BF0DEEC30F0D2EC2EF05D50585CD8A45B
:10579000E868FF0A136E6350595CD8A4E868FF0AF2
:1057A000156E13C001F01550A4EC00F0156E166EC6
:1057B00069505A5CD8A4E868FF0A176E1550161095
:1057C000016E1750A4EC00F0176E186E040017500D
:1057D0001810D8B4FBEF2BF083949594416A406A7B
:1057E000586A596A5A6AFE0E04EC00F0010E04EC85
:1057F00000F00DEF2CF0040040500108D8A405EF94
:105800002CF083849594010E416E010E046EC20E3D
:1058100084EC00F00FEC33F095D7010E426EDEEC15
:105820002FF0040082A416EF2CF0F7D7040082B208
:1058300020EF2CF0838E959E010E4D6E23EF2CF001
:10584000839E959E4D6A040043500008D8A431EF12
:105850002CF0FE0E04EC00F0010E04EC00F07BEFE7
:105860002CF0040080B237EF2CF0DEEC30F0D2ECFC
:105870002EF05E50585CD8A4E868FF0A136E64509E
:10588000595CD8A4E868FF0A156E13C001F01550E2
:10589000A4EC00F0156E166E6A505A5CD8A4E86845
:1058A000FF0A176E15501610016E1750A4EC00F089
:1058B000176E186E040017501810D8B469EF2CF04A
:1058C00083969596446A436A586A596A5A6A7BEF86
:1058D0002CF0040043500108D8A473EF2CF0838609
:1058E0009596010E446E010E046EC20E84EC00F01B
:1058F0000FEC33F09BD7010E456EDEEC2FF0040069
:1059000082A484EF2CF0F7D7040082B28EEF2CF043
:10591000838E959E010E4D6E91EF2CF0839E959E89
:105920004D6A040046500008D8A49FEF2CF0FE0EEC
:1059300004EC00F0010E04EC00F0EFEF2CF004009A
:1059400080B2A5EF2CF0DEEC30F0D2EC2EF05D5002
:10595000585CD8A4E868FF0A136E6550595CD8A457
:10596000E868FF0A156E13C001F01550A4EC00F0B2
:10597000156E166E6B505A5CD8A4E868FF0A176E55
:1059800015501610016E1750A4EC00F0176E186E2B
:10599000040017501810D8B4DDEF2CF083989598B8
:1059A000476A466A586A596A5A6AFE0E04EC00F061
:1059B000010E04EC00F0EFEF2CF00400465001085B
:1059C000D8A4E7EF2CF083889598010E476E010E5E
:1059D000046EC20E84EC00F00FEC33F095D7DEECD1
:1059E0002FF0010E486E040082A4F8EF2CF0F7D7D8
:1059F000040082B202EF2DF0838E959E010E4D6E53
:105A000005EF2DF0839E959E4D6A3A500008D8A46C
:105A1000E868FF0A136E3D500008D8A4E868FF0A42
:105A2000156E13C001F01550A4EC00F0156E166E43
:105A300040500008D8A4E868FF0A176E15501610E9
:105A4000016E1750A4EC00F0176E186E435000085A
:105A5000D8A4E868FF0A196E17501810016E195083
:105A6000A4EC00F0196E1A6E46500008D8A4E8683D
:105A7000FF0A1B6E19501A10016E1B50A4EC00F0A7
:105A80001B6E1C6E49500008D8A4E868FF0A1D6E02
:105A90001B501C10016E1D50A4EC00F01D6E1E6EFC
:105AA00004001D501E10D8B45EEF2DF0FE0E04EC65
:105AB00000F0010E04EC00F0A8EF2DF0040080B21D
:105AC00064EF2DF0DEEC30F0D2EC2EF06050585C3C
:105AD000D8A4E868FF0A136E6650595CD8A4E86839
